{
    "_format": "hh-sol-artifact-1",
    "contractName": "xECP",
    "sourceName": "contracts/xECP.sol",
    "abi": [
        {
            "inputs": [
                {
                    "internalType": "address",
                    "name": "_ecp",
                    "type": "address"
                }
            ],
            "stateMutability": "nonpayable",
            "type": "constructor"
        },
        {
            "anonymous": false,
            "inputs": [
                {
                    "indexed": true,
                    "internalType": "address",
                    "name": "owner",
                    "type": "address"
                },
                {
                    "indexed": true,
                    "internalType": "address",
                    "name": "spender",
                    "type": "address"
                },
                {
                    "indexed": false,
                    "internalType": "uint256",
                    "name": "value",
                    "type": "uint256"
                }
            ],
            "name": "Approval",
            "type": "event"
        },
        {
            "anonymous": false,
            "inputs": [
                {
                    "indexed": false,
                    "internalType": "uint256",
                    "name": "index",
                    "type": "uint256"
                },
                {
                    "indexed": false,
                    "internalType": "address",
                    "name": "user",
                    "type": "address"
                }
            ],
            "name": "Cancel",
            "type": "event"
        },
        {
            "anonymous": false,
            "inputs": [
                {
                    "indexed": false,
                    "internalType": "uint256",
                    "name": "index",
                    "type": "uint256"
                },
                {
                    "indexed": false,
                    "internalType": "address",
                    "name": "user",
                    "type": "address"
                }
            ],
            "name": "Claim",
            "type": "event"
        },
        {
            "anonymous": false,
            "inputs": [
                {
                    "indexed": false,
                    "internalType": "uint256",
                    "name": "index",
                    "type": "uint256"
                },
                {
                    "indexed": false,
                    "internalType": "uint256",
                    "name": "xECP",
                    "type": "uint256"
                },
                {
                    "indexed": false,
                    "internalType": "address",
                    "name": "user",
                    "type": "address"
                },
                {
                    "indexed": false,
                    "internalType": "uint256",
                    "name": "startTime",
                    "type": "uint256"
                },
                {
                    "indexed": false,
                    "internalType": "uint256",
                    "name": "endTime",
                    "type": "uint256"
                },
                {
                    "indexed": false,
                    "internalType": "uint256",
                    "name": "canClaim",
                    "type": "uint256"
                }
            ],
            "name": "Redeem",
            "type": "event"
        },
        {
            "anonymous": false,
            "inputs": [
                {
                    "indexed": true,
                    "internalType": "bytes32",
                    "name": "role",
                    "type": "bytes32"
                },
                {
                    "indexed": true,
                    "internalType": "bytes32",
                    "name": "previousAdminRole",
                    "type": "bytes32"
                },
                {
                    "indexed": true,
                    "internalType": "bytes32",
                    "name": "newAdminRole",
                    "type": "bytes32"
                }
            ],
            "name": "RoleAdminChanged",
            "type": "event"
        },
        {
            "anonymous": false,
            "inputs": [
                {
                    "indexed": true,
                    "internalType": "bytes32",
                    "name": "role",
                    "type": "bytes32"
                },
                {
                    "indexed": true,
                    "internalType": "address",
                    "name": "account",
                    "type": "address"
                },
                {
                    "indexed": true,
                    "internalType": "address",
                    "name": "sender",
                    "type": "address"
                }
            ],
            "name": "RoleGranted",
            "type": "event"
        },
        {
            "anonymous": false,
            "inputs": [
                {
                    "indexed": true,
                    "internalType": "bytes32",
                    "name": "role",
                    "type": "bytes32"
                },
                {
                    "indexed": true,
                    "internalType": "address",
                    "name": "account",
                    "type": "address"
                },
                {
                    "indexed": true,
                    "internalType": "address",
                    "name": "sender",
                    "type": "address"
                }
            ],
            "name": "RoleRevoked",
            "type": "event"
        },
        {
            "anonymous": false,
            "inputs": [
                {
                    "indexed": true,
                    "internalType": "address",
                    "name": "from",
                    "type": "address"
                },
                {
                    "indexed": true,
                    "internalType": "address",
                    "name": "to",
                    "type": "address"
                },
                {
                    "indexed": false,
                    "internalType": "uint256",
                    "name": "value",
                    "type": "uint256"
                }
            ],
            "name": "Transfer",
            "type": "event"
        },
        {
            "inputs": [],
            "name": "DEFAULT_ADMIN_ROLE",
            "outputs": [
                {
                    "internalType": "bytes32",
                    "name": "",
                    "type": "bytes32"
                }
            ],
            "stateMutability": "view",
            "type": "function"
        },
        {
            "inputs": [],
            "name": "MINTER_ROLE",
            "outputs": [
                {
                    "internalType": "bytes32",
                    "name": "",
                    "type": "bytes32"
                }
            ],
            "stateMutability": "view",
            "type": "function"
        },
        {
            "inputs": [
                {
                    "internalType": "address",
                    "name": "owner",
                    "type": "address"
                },
                {
                    "internalType": "address",
                    "name": "spender",
                    "type": "address"
                }
            ],
            "name": "allowance",
            "outputs": [
                {
                    "internalType": "uint256",
                    "name": "",
                    "type": "uint256"
                }
            ],
            "stateMutability": "view",
            "type": "function"
        },
        {
            "inputs": [
                {
                    "internalType": "address",
                    "name": "spender",
                    "type": "address"
                },
                {
                    "internalType": "uint256",
                    "name": "amount",
                    "type": "uint256"
                }
            ],
            "name": "approve",
            "outputs": [
                {
                    "internalType": "bool",
                    "name": "",
                    "type": "bool"
                }
            ],
            "stateMutability": "nonpayable",
            "type": "function"
        },
        {
            "inputs": [
                {
                    "internalType": "address",
                    "name": "account",
                    "type": "address"
                }
            ],
            "name": "balanceOf",
            "outputs": [
                {
                    "internalType": "uint256",
                    "name": "",
                    "type": "uint256"
                }
            ],
            "stateMutability": "view",
            "type": "function"
        },
        {
            "inputs": [],
            "name": "canClaimPerSecond",
            "outputs": [
                {
                    "internalType": "uint256",
                    "name": "",
                    "type": "uint256"
                }
            ],
            "stateMutability": "view",
            "type": "function"
        },
        {
            "inputs": [
                {
                    "internalType": "uint256",
                    "name": "index",
                    "type": "uint256"
                }
            ],
            "name": "cancel",
            "outputs": [],
            "stateMutability": "nonpayable",
            "type": "function"
        },
        {
            "inputs": [
                {
                    "internalType": "uint256",
                    "name": "index",
                    "type": "uint256"
                }
            ],
            "name": "claim",
            "outputs": [],
            "stateMutability": "nonpayable",
            "type": "function"
        },
        {
            "inputs": [
                {
                    "internalType": "uint256",
                    "name": "amount",
                    "type": "uint256"
                }
            ],
            "name": "convert",
            "outputs": [],
            "stateMutability": "nonpayable",
            "type": "function"
        },
        {
            "inputs": [
                {
                    "internalType": "address",
                    "name": "",
                    "type": "address"
                }
            ],
            "name": "currentIndex",
            "outputs": [
                {
                    "internalType": "uint256",
                    "name": "",
                    "type": "uint256"
                }
            ],
            "stateMutability": "view",
            "type": "function"
        },
        {
            "inputs": [],
            "name": "decimals",
            "outputs": [
                {
                    "internalType": "uint8",
                    "name": "",
                    "type": "uint8"
                }
            ],
            "stateMutability": "view",
            "type": "function"
        },
        {
            "inputs": [
                {
                    "internalType": "address",
                    "name": "spender",
                    "type": "address"
                },
                {
                    "internalType": "uint256",
                    "name": "subtractedValue",
                    "type": "uint256"
                }
            ],
            "name": "decreaseAllowance",
            "outputs": [
                {
                    "internalType": "bool",
                    "name": "",
                    "type": "bool"
                }
            ],
            "stateMutability": "nonpayable",
            "type": "function"
        },
        {
            "inputs": [],
            "name": "ecp",
            "outputs": [
                {
                    "internalType": "contract IERC20",
                    "name": "",
                    "type": "address"
                }
            ],
            "stateMutability": "view",
            "type": "function"
        },
        {
            "inputs": [
                {
                    "internalType": "bytes32",
                    "name": "role",
                    "type": "bytes32"
                }
            ],
            "name": "getRoleAdmin",
            "outputs": [
                {
                    "internalType": "bytes32",
                    "name": "",
                    "type": "bytes32"
                }
            ],
            "stateMutability": "view",
            "type": "function"
        },
        {
            "inputs": [
                {
                    "internalType": "bytes32",
                    "name": "role",
                    "type": "bytes32"
                },
                {
                    "internalType": "address",
                    "name": "account",
                    "type": "address"
                }
            ],
            "name": "grantRole",
            "outputs": [],
            "stateMutability": "nonpayable",
            "type": "function"
        },
        {
            "inputs": [
                {
                    "internalType": "bytes32",
                    "name": "role",
                    "type": "bytes32"
                },
                {
                    "internalType": "address",
                    "name": "account",
                    "type": "address"
                }
            ],
            "name": "hasRole",
            "outputs": [
                {
                    "internalType": "bool",
                    "name": "",
                    "type": "bool"
                }
            ],
            "stateMutability": "view",
            "type": "function"
        },
        {
            "inputs": [
                {
                    "internalType": "address",
                    "name": "spender",
                    "type": "address"
                },
                {
                    "internalType": "uint256",
                    "name": "addedValue",
                    "type": "uint256"
                }
            ],
            "name": "increaseAllowance",
            "outputs": [
                {
                    "internalType": "bool",
                    "name": "",
                    "type": "bool"
                }
            ],
            "stateMutability": "nonpayable",
            "type": "function"
        },
        {
            "inputs": [],
            "name": "maxPercent",
            "outputs": [
                {
                    "internalType": "uint256",
                    "name": "",
                    "type": "uint256"
                }
            ],
            "stateMutability": "view",
            "type": "function"
        },
        {
            "inputs": [],
            "name": "maxTimeClaim",
            "outputs": [
                {
                    "internalType": "uint256",
                    "name": "",
                    "type": "uint256"
                }
            ],
            "stateMutability": "view",
            "type": "function"
        },
        {
            "inputs": [],
            "name": "minPercent",
            "outputs": [
                {
                    "internalType": "uint256",
                    "name": "",
                    "type": "uint256"
                }
            ],
            "stateMutability": "view",
            "type": "function"
        },
        {
            "inputs": [],
            "name": "minTimeClaim",
            "outputs": [
                {
                    "internalType": "uint256",
                    "name": "",
                    "type": "uint256"
                }
            ],
            "stateMutability": "view",
            "type": "function"
        },
        {
            "inputs": [
                {
                    "internalType": "address",
                    "name": "_user",
                    "type": "address"
                },
                {
                    "internalType": "uint256",
                    "name": "_amount",
                    "type": "uint256"
                }
            ],
            "name": "mintReward",
            "outputs": [],
            "stateMutability": "nonpayable",
            "type": "function"
        },
        {
            "inputs": [],
            "name": "name",
            "outputs": [
                {
                    "internalType": "string",
                    "name": "",
                    "type": "string"
                }
            ],
            "stateMutability": "view",
            "type": "function"
        },
        {
            "inputs": [
                {
                    "internalType": "uint256",
                    "name": "amount",
                    "type": "uint256"
                },
                {
                    "internalType": "uint256",
                    "name": "amountDayClaim",
                    "type": "uint256"
                }
            ],
            "name": "redeem",
            "outputs": [],
            "stateMutability": "nonpayable",
            "type": "function"
        },
        {
            "inputs": [
                {
                    "internalType": "address",
                    "name": "_minter",
                    "type": "address"
                }
            ],
            "name": "removeMinter",
            "outputs": [],
            "stateMutability": "nonpayable",
            "type": "function"
        },
        {
            "inputs": [
                {
                    "internalType": "bytes32",
                    "name": "role",
                    "type": "bytes32"
                },
                {
                    "internalType": "address",
                    "name": "account",
                    "type": "address"
                }
            ],
            "name": "renounceRole",
            "outputs": [],
            "stateMutability": "nonpayable",
            "type": "function"
        },
        {
            "inputs": [
                {
                    "internalType": "bytes32",
                    "name": "role",
                    "type": "bytes32"
                },
                {
                    "internalType": "address",
                    "name": "account",
                    "type": "address"
                }
            ],
            "name": "revokeRole",
            "outputs": [],
            "stateMutability": "nonpayable",
            "type": "function"
        },
        {
            "inputs": [
                {
                    "internalType": "address",
                    "name": "_minter",
                    "type": "address"
                }
            ],
            "name": "setMinter",
            "outputs": [],
            "stateMutability": "nonpayable",
            "type": "function"
        },
        {
            "inputs": [
                {
                    "internalType": "bytes4",
                    "name": "interfaceId",
                    "type": "bytes4"
                }
            ],
            "name": "supportsInterface",
            "outputs": [
                {
                    "internalType": "bool",
                    "name": "",
                    "type": "bool"
                }
            ],
            "stateMutability": "view",
            "type": "function"
        },
        {
            "inputs": [],
            "name": "symbol",
            "outputs": [
                {
                    "internalType": "string",
                    "name": "",
                    "type": "string"
                }
            ],
            "stateMutability": "view",
            "type": "function"
        },
        {
            "inputs": [],
            "name": "totalSupply",
            "outputs": [
                {
                    "internalType": "uint256",
                    "name": "",
                    "type": "uint256"
                }
            ],
            "stateMutability": "view",
            "type": "function"
        },
        {
            "inputs": [
                {
                    "internalType": "address",
                    "name": "to",
                    "type": "address"
                },
                {
                    "internalType": "uint256",
                    "name": "amount",
                    "type": "uint256"
                }
            ],
            "name": "transfer",
            "outputs": [
                {
                    "internalType": "bool",
                    "name": "",
                    "type": "bool"
                }
            ],
            "stateMutability": "nonpayable",
            "type": "function"
        },
        {
            "inputs": [
                {
                    "internalType": "address",
                    "name": "from",
                    "type": "address"
                },
                {
                    "internalType": "address",
                    "name": "to",
                    "type": "address"
                },
                {
                    "internalType": "uint256",
                    "name": "amount",
                    "type": "uint256"
                }
            ],
            "name": "transferFrom",
            "outputs": [
                {
                    "internalType": "bool",
                    "name": "",
                    "type": "bool"
                }
            ],
            "stateMutability": "nonpayable",
            "type": "function"
        },
        {
            "inputs": [
                {
                    "internalType": "address",
                    "name": "",
                    "type": "address"
                },
                {
                    "internalType": "uint256",
                    "name": "",
                    "type": "uint256"
                }
            ],
            "name": "users",
            "outputs": [
                {
                    "internalType": "uint256",
                    "name": "xECP",
                    "type": "uint256"
                },
                {
                    "internalType": "uint256",
                    "name": "ECP",
                    "type": "uint256"
                },
                {
                    "internalType": "uint256",
                    "name": "startTime",
                    "type": "uint256"
                },
                {
                    "internalType": "uint256",
                    "name": "endTime",
                    "type": "uint256"
                },
                {
                    "internalType": "uint256",
                    "name": "canClaim",
                    "type": "uint256"
                }
            ],
            "stateMutability": "view",
            "type": "function"
        },
        {
            "inputs": [
                {
                    "internalType": "uint256",
                    "name": "amount",
                    "type": "uint256"
                }
            ],
            "name": "withdrawECP",
            "outputs": [],
            "stateMutability": "nonpayable",
            "type": "function"
        }
    ],
    "bytecode": "0x60806040526213c680600755624f1a0060085560326009556064600a55620000736200003e6007546008546200015960201b62000de21790919060201c565b6200005f64e8d4a510006009546200016e60201b62000df51790919060201c565b6200017c60201b62000e011790919060201c565b600b553480156200008357600080fd5b50604051620020cd380380620020cd833981016040819052620000a691620002d5565b6040805180820182526004808252630784543560e41b602080840182815285518087019096529285528401528151919291620000e5916003916200022f565b508051620000fb9060049060208401906200022f565b5050600680546001600160a01b0319166001600160a01b03841617905550620001266000336200018a565b620001527f9f2df0fed2c77648de5860a4cc508cd0818c85b8b8a1ab4ceeef8d981c8956a6336200018a565b50620003b2565b600062000167828462000316565b9392505050565b600062000167828462000330565b600062000167828462000352565b60008281526005602090815260408083206001600160a01b038516845290915290205460ff166200022b5760008281526005602090815260408083206001600160a01b03851684529091529020805460ff19166001179055620001ea3390565b6001600160a01b0316816001600160a01b0316837f2f8788117e7eff1d82e926ec794901d17c78024a50270940304540a733656f0d60405160405180910390a45b5050565b8280546200023d9062000375565b90600052602060002090601f016020900481019282620002615760008555620002ac565b82601f106200027c57805160ff1916838001178555620002ac565b82800160010185558215620002ac579182015b82811115620002ac5782518255916020019190600101906200028f565b50620002ba929150620002be565b5090565b5b80821115620002ba5760008155600101620002bf565b600060208284031215620002e857600080fd5b81516001600160a01b03811681146200016757600080fd5b634e487b7160e01b600052601160045260246000fd5b6000828210156200032b576200032b62000300565b500390565b60008160001904831182151516156200034d576200034d62000300565b500290565b6000826200037057634e487b7160e01b600052601260045260246000fd5b500490565b600181811c908216806200038a57607f821691505b60208210811415620003ac57634e487b7160e01b600052602260045260246000fd5b50919050565b611d0b80620003c26000396000f3fe608060405234801561001057600080fd5b50600436106102115760003560e01c80634d0d497d11610125578063a217fddf116100ad578063ba88adfd1161007c578063ba88adfd146104c8578063d5391393146104db578063d547741f146104f0578063dd62ed3e14610503578063fca3b5aa1461051657600080fd5b8063a217fddf14610487578063a3908e1b1461048f578063a457c2d7146104a2578063a9059cbb146104b557600080fd5b806370a08231116100f457806370a082311461041d5780637cbc23731461044657806391d148541461045957806395d89b411461046c5780639a49090e1461047457600080fd5b80634d0d497d14610392578063513b7b7c1461039b57806354a02f9e146103a457806359a153ba1461041457600080fd5b80632f2ff15d116101a8578063379607f511610177578063379607f51461033057806339509351146103435780633b9418fd146103565780633fb2fa4b1461037657806340e58ee51461037f57600080fd5b80632f2ff15d146102e65780633092afd5146102fb578063313ce5671461030e57806336568abe1461031d57600080fd5b8063126d2c2b116101e4578063126d2c2b1461029157806318160ddd146102a857806323b872dd146102b0578063248a9ca3146102c357600080fd5b806301ffc9a71461021657806306fdde031461023e578063077f52bf14610253578063095ea7b31461027e575b600080fd5b610229610224366004611947565b610529565b60405190151581526020015b60405180910390f35b610246610560565b604051610235919061199d565b600654610266906001600160a01b031681565b6040516001600160a01b039091168152602001610235565b61022961028c3660046119ec565b6105f2565b61029a60095481565b604051908152602001610235565b60025461029a565b6102296102be366004611a16565b61060a565b61029a6102d1366004611a52565b60009081526005602052604090206001015490565b6102f96102f4366004611a6b565b61062e565b005b6102f9610309366004611a97565b610658565b60405160128152602001610235565b6102f961032b366004611a6b565b61067f565b6102f961033e366004611a52565b6106fe565b6102296103513660046119ec565b610869565b61029a610364366004611a97565b600d6020526000908152604090205481565b61029a600b5481565b6102f961038d366004611a52565b61088b565b61029a60085481565b61029a60075481565b6103ec6103b23660046119ec565b600c602090815260009283526040808420909152908252902080546001820154600283015460038401546004909401549293919290919085565b604080519586526020860194909452928401919091526060830152608082015260a001610235565b61029a600a5481565b61029a61042b366004611a97565b6001600160a01b031660009081526020819052604090205490565b6102f9610454366004611ab2565b610980565b610229610467366004611a6b565b610bf3565b610246610c1e565b6102f96104823660046119ec565b610c2d565b61029a600081565b6102f961049d366004611a52565b610c4f565b6102296104b03660046119ec565b610cc4565b6102296104c33660046119ec565b610d3f565b6102f96104d6366004611a52565b610d4d565b61029a600080516020611cb683398151915281565b6102f96104fe366004611a6b565b610d6f565b61029a610511366004611ad4565b610d94565b6102f9610524366004611a97565b610dbf565b60006001600160e01b03198216637965db0b60e01b148061055a57506301ffc9a760e01b6001600160e01b03198316145b92915050565b60606003805461056f90611afe565b80601f016020809104026020016040519081016040528092919081815260200182805461059b90611afe565b80156105e85780601f106105bd576101008083540402835291602001916105e8565b820191906000526020600020905b8154815290600101906020018083116105cb57829003601f168201915b5050505050905090565b600033610600818585610e0d565b5060019392505050565b600033610618858285610f31565b610623858585610fab565b506001949350505050565b6000828152600560205260409020600101546106498161114f565b6106538383611159565b505050565b60006106638161114f565b61067b600080516020611cb6833981519152836111df565b5050565b6001600160a01b03811633146106f45760405162461bcd60e51b815260206004820152602f60248201527f416363657373436f6e74726f6c3a2063616e206f6e6c792072656e6f756e636560448201526e103937b632b9903337b91039b2b63360891b60648201526084015b60405180910390fd5b61067b82826111df565b336000908152600c60209081526040808320848452909152902080546107615760405162461bcd60e51b81526020600482015260186024820152774563686f646578546f6b656e3a204e4f545f52454445454d60401b60448201526064016106eb565b6001810154156107ab5760405162461bcd60e51b81526020600482015260156024820152741158da1bd9195e151bdad95b8e8810d31052535151605a1b60448201526064016106eb565b42816003015411156107f85760405162461bcd60e51b81526020600482015260166024820152754563686f646578546f6b656e3a204e4f545f54494d4560501b60448201526064016106eb565b60048101546001820181905560065461081e916001600160a01b03909116903390611246565b61082c3082600001546112a9565b604080518381523360208201527f35538759d80c1fd7bb450a0d05601db5a99fa8b5d073a07c847a9fd61029b10791015b60405180910390a15050565b60003361060081858561087c8383610d94565b6108869190611b4f565b610e0d565b336000908152600c60209081526040808320848452909152902080546108ee5760405162461bcd60e51b81526020600482015260186024820152774563686f646578546f6b656e3a204e4f545f52454445454d60401b60448201526064016106eb565b6001810154156109385760405162461bcd60e51b81526020600482015260156024820152741158da1bd9195e151bdad95b8e8810d31052535151605a1b60448201526064016106eb565b61094730338360000154611246565b60008155604080518381523360208201527f8dd3c361eb2366ff27c2db0eb07b9261f1d052570742ab8c9a0c326f37aa576d910161085d565b60075461098e826018611b67565b61099990603c611b67565b6109a490603c611b67565b10156109f25760405162461bcd60e51b815260206004820152601860248201527f4563686f646578546f6b656e3a2054494d455f4552524f52000000000000000060448201526064016106eb565b336000908152600c60209081526040808320600d83528184205484529091529020828155426002820155610a4b610a2a836018611b67565b610a3590603c611b67565b610a4090603c611b67565b6002830154906113db565b6003820155600854600090610a61846018611b67565b610a6c90603c611b67565b610a7790603c611b67565b1415610a9657600a54610a8f9064e8d4a51000610df5565b9050610ae8565b600954610ae590610aac9064e8d4a51000610df5565b610adf600b54610ad9610ace60075488600201546113db90919063ffffffff16565b600388015490610de2565b90610df5565b906113db565b90505b600a54610afa9064e8d4a51000610df5565b811115610b1657600a54610b139064e8d4a51000610df5565b90505b600a54610b3f90610b2c9064e8d4a51000610df5565b8354610b39908490610df5565b90610e01565b6004830155610b50303381876113e7565b336000818152600d60209081526040918290205460028601546003870154600488015485519384529383018a9052828501959095526060820152608081019390935260a0830152517f8b972679ffb5f0b12729ce86d4ee4b93ae5551f646c872bf299300a1739ea21c9181900360c00190a1336000908152600d6020526040902054610bdd906001611b4f565b336000908152600d602052604090205550505050565b60009182526005602090815260408084206001600160a01b0393909316845291905290205460ff1690565b60606004805461056f90611afe565b600080516020611cb6833981519152610c458161114f565b610653838361141f565b60008111610c9f5760405162461bcd60e51b815260206004820152601a60248201527f4563686f646578546f6b656e3a20414d4f554e545f4552524f5200000000000060448201526064016106eb565b600654610cb7906001600160a01b03163330846113e7565b610cc1338261141f565b50565b60003381610cd28286610d94565b905083811015610d325760405162461bcd60e51b815260206004820152602560248201527f45524332303a2064656372656173656420616c6c6f77616e63652062656c6f77604482015264207a65726f60d81b60648201526084016106eb565b6106238286868403610e0d565b600033610600818585610fab565b6000610d588161114f565b60065461067b906001600160a01b03163384611246565b600082815260056020526040902060010154610d8a8161114f565b61065383836111df565b6001600160a01b03918216600090815260016020908152604080832093909416825291909152205490565b6000610dca8161114f565b61067b600080516020611cb683398151915283611159565b6000610dee8284611b86565b9392505050565b6000610dee8284611b67565b6000610dee8284611b9d565b6001600160a01b038316610e6f5760405162461bcd60e51b8152602060048201526024808201527f45524332303a20617070726f76652066726f6d20746865207a65726f206164646044820152637265737360e01b60648201526084016106eb565b6001600160a01b038216610ed05760405162461bcd60e51b815260206004820152602260248201527f45524332303a20617070726f766520746f20746865207a65726f206164647265604482015261737360f01b60648201526084016106eb565b6001600160a01b0383811660008181526001602090815260408083209487168084529482529182902085905590518481527f8c5be1e5ebec7d5bd14f71427d1e84f3dd0314c0f7b2291e5b200ac8c7c3b925910160405180910390a3505050565b6000610f3d8484610d94565b90506000198114610fa55781811015610f985760405162461bcd60e51b815260206004820152601d60248201527f45524332303a20696e73756666696369656e7420616c6c6f77616e636500000060448201526064016106eb565b610fa58484848403610e0d565b50505050565b6001600160a01b03831661100f5760405162461bcd60e51b815260206004820152602560248201527f45524332303a207472616e736665722066726f6d20746865207a65726f206164604482015264647265737360d81b60648201526084016106eb565b6001600160a01b0382166110715760405162461bcd60e51b815260206004820152602360248201527f45524332303a207472616e7366657220746f20746865207a65726f206164647260448201526265737360e81b60648201526084016106eb565b6001600160a01b038316600090815260208190526040902054818110156110e95760405162461bcd60e51b815260206004820152602660248201527f45524332303a207472616e7366657220616d6f756e7420657863656564732062604482015265616c616e636560d01b60648201526084016106eb565b6001600160a01b03848116600081815260208181526040808320878703905593871680835291849020805487019055925185815290927fddf252ad1be2c89b69c2b068fc378daa952ba7f163c4a11628f55a4df523b3ef910160405180910390a3610fa5565b610cc181336114de565b6111638282610bf3565b61067b5760008281526005602090815260408083206001600160a01b03851684529091529020805460ff1916600117905561119b3390565b6001600160a01b0316816001600160a01b0316837f2f8788117e7eff1d82e926ec794901d17c78024a50270940304540a733656f0d60405160405180910390a45050565b6111e98282610bf3565b1561067b5760008281526005602090815260408083206001600160a01b0385168085529252808320805460ff1916905551339285917ff6391f5c32d9c69d2a47ea670b442974b53935d1edc7fd64eb21e047a839171b9190a45050565b6040516001600160a01b03831660248201526044810182905261065390849063a9059cbb60e01b906064015b60408051601f198184030181529190526020810180516001600160e01b03166001600160e01b031990931692909217909152611537565b6001600160a01b0382166113095760405162461bcd60e51b815260206004820152602160248201527f45524332303a206275726e2066726f6d20746865207a65726f206164647265736044820152607360f81b60648201526084016106eb565b6001600160a01b0382166000908152602081905260409020548181101561137d5760405162461bcd60e51b815260206004820152602260248201527f45524332303a206275726e20616d6f756e7420657863656564732062616c616e604482015261636560f01b60648201526084016106eb565b6001600160a01b0383166000818152602081815260408083208686039055600280548790039055518581529192917fddf252ad1be2c89b69c2b068fc378daa952ba7f163c4a11628f55a4df523b3ef910160405180910390a3505050565b6000610dee8284611b4f565b6040516001600160a01b0380851660248301528316604482015260648101829052610fa59085906323b872dd60e01b90608401611272565b6001600160a01b0382166114755760405162461bcd60e51b815260206004820152601f60248201527f45524332303a206d696e7420746f20746865207a65726f20616464726573730060448201526064016106eb565b80600260008282546114879190611b4f565b90915550506001600160a01b038216600081815260208181526040808320805486019055518481527fddf252ad1be2c89b69c2b068fc378daa952ba7f163c4a11628f55a4df523b3ef910160405180910390a35050565b6114e88282610bf3565b61067b576114f58161160c565b61150083602061161e565b604051602001611511929190611bbf565b60408051601f198184030181529082905262461bcd60e51b82526106eb9160040161199d565b600061158c826040518060400160405280602081526020017f5361666545524332303a206c6f772d6c6576656c2063616c6c206661696c6564815250856001600160a01b03166117ba9092919063ffffffff16565b90508051600014806115ad5750808060200190518101906115ad9190611c34565b6106535760405162461bcd60e51b815260206004820152602a60248201527f5361666545524332303a204552433230206f7065726174696f6e20646964206e6044820152691bdd081cdd58d8d9595960b21b60648201526084016106eb565b606061055a6001600160a01b03831660145b6060600061162d836002611b67565b611638906002611b4f565b67ffffffffffffffff81111561165057611650611c56565b6040519080825280601f01601f19166020018201604052801561167a576020820181803683370190505b509050600360fc1b8160008151811061169557611695611c6c565b60200101906001600160f81b031916908160001a905350600f60fb1b816001815181106116c4576116c4611c6c565b60200101906001600160f81b031916908160001a90535060006116e8846002611b67565b6116f3906001611b4f565b90505b600181111561176b576f181899199a1a9b1b9c1cb0b131b232b360811b85600f166010811061172757611727611c6c565b1a60f81b82828151811061173d5761173d611c6c565b60200101906001600160f81b031916908160001a90535060049490941c9361176481611c82565b90506116f6565b508315610dee5760405162461bcd60e51b815260206004820181905260248201527f537472696e67733a20686578206c656e67746820696e73756666696369656e7460448201526064016106eb565b60606117c984846000856117d1565b949350505050565b6060824710156118325760405162461bcd60e51b815260206004820152602660248201527f416464726573733a20696e73756666696369656e742062616c616e636520666f6044820152651c8818d85b1b60d21b60648201526084016106eb565b600080866001600160a01b0316858760405161184e9190611c99565b60006040518083038185875af1925050503d806000811461188b576040519150601f19603f3d011682016040523d82523d6000602084013e611890565b606091505b50915091506118a1878383876118ac565b979650505050505050565b60608315611918578251611911576001600160a01b0385163b6119115760405162461bcd60e51b815260206004820152601d60248201527f416464726573733a2063616c6c20746f206e6f6e2d636f6e747261637400000060448201526064016106eb565b50816117c9565b6117c9838381511561192d5781518083602001fd5b8060405162461bcd60e51b81526004016106eb919061199d565b60006020828403121561195957600080fd5b81356001600160e01b031981168114610dee57600080fd5b60005b8381101561198c578181015183820152602001611974565b83811115610fa55750506000910152565b60208152600082518060208401526119bc816040850160208701611971565b601f01601f19169190910160400192915050565b80356001600160a01b03811681146119e757600080fd5b919050565b600080604083850312156119ff57600080fd5b611a08836119d0565b946020939093013593505050565b600080600060608486031215611a2b57600080fd5b611a34846119d0565b9250611a42602085016119d0565b9150604084013590509250925092565b600060208284031215611a6457600080fd5b5035919050565b60008060408385031215611a7e57600080fd5b82359150611a8e602084016119d0565b90509250929050565b600060208284031215611aa957600080fd5b610dee826119d0565b60008060408385031215611ac557600080fd5b50508035926020909101359150565b60008060408385031215611ae757600080fd5b611af0836119d0565b9150611a8e602084016119d0565b600181811c90821680611b1257607f821691505b60208210811415611b3357634e487b7160e01b600052602260045260246000fd5b50919050565b634e487b7160e01b600052601160045260246000fd5b60008219821115611b6257611b62611b39565b500190565b6000816000190483118215151615611b8157611b81611b39565b500290565b600082821015611b9857611b98611b39565b500390565b600082611bba57634e487b7160e01b600052601260045260246000fd5b500490565b7f416363657373436f6e74726f6c3a206163636f756e7420000000000000000000815260008351611bf7816017850160208801611971565b7001034b99036b4b9b9b4b733903937b6329607d1b6017918401918201528351611c28816028840160208801611971565b01602801949350505050565b600060208284031215611c4657600080fd5b81518015158114610dee57600080fd5b634e487b7160e01b600052604160045260246000fd5b634e487b7160e01b600052603260045260246000fd5b600081611c9157611c91611b39565b506000190190565b60008251611cab818460208701611971565b919091019291505056fe9f2df0fed2c77648de5860a4cc508cd0818c85b8b8a1ab4ceeef8d981c8956a6a264697066735822122033bbb2d9d3be08d34a43484e8846be4bcf44300818b983cd2ff879ea0aed6e1864736f6c63430008090033",
    "linkReferences": {},
    "deployedLinkReferences": {}
}